{
  "abi": [
    {
      "inputs": [
        {
          "internalType": "address",
          "name": "_owner",
          "type": "address"
        }
      ],
      "stateMutability": "nonpayable",
      "type": "constructor"
    },
    {
      "anonymous": false,
      "inputs": [
        {
          "indexed": false,
          "internalType": "bytes32",
          "name": "name",
          "type": "bytes32"
        },
        {
          "indexed": false,
          "internalType": "address",
          "name": "destination",
          "type": "address"
        }
      ],
      "name": "AddressImported",
      "type": "event"
    },
    {
      "anonymous": false,
      "inputs": [
        {
          "indexed": false,
          "internalType": "address",
          "name": "oldOwner",
          "type": "address"
        },
        {
          "indexed": false,
          "internalType": "address",
          "name": "newOwner",
          "type": "address"
        }
      ],
      "name": "OwnerChanged",
      "type": "event"
    },
    {
      "inputs": [
        {
          "internalType": "bytes32[]",
          "name": "names",
          "type": "bytes32[]"
        },
        {
          "internalType": "address[]",
          "name": "destinations",
          "type": "address[]"
        }
      ],
      "name": "areAddressesImported",
      "outputs": [
        {
          "internalType": "bool",
          "name": "",
          "type": "bool"
        }
      ],
      "stateMutability": "view",
      "type": "function"
    },
    {
      "inputs": [
        {
          "internalType": "bytes32",
          "name": "name",
          "type": "bytes32"
        }
      ],
      "name": "getAddress",
      "outputs": [
        {
          "internalType": "address",
          "name": "",
          "type": "address"
        }
      ],
      "stateMutability": "view",
      "type": "function"
    },
    {
      "inputs": [
        {
          "internalType": "bytes32[]",
          "name": "names",
          "type": "bytes32[]"
        },
        {
          "internalType": "address[]",
          "name": "destinations",
          "type": "address[]"
        }
      ],
      "name": "importAddresses",
      "outputs": [],
      "stateMutability": "nonpayable",
      "type": "function"
    },
    {
      "inputs": [],
      "name": "owner",
      "outputs": [
        {
          "internalType": "address",
          "name": "",
          "type": "address"
        }
      ],
      "stateMutability": "view",
      "type": "function"
    },
    {
      "inputs": [
        {
          "internalType": "contract IMixinResolver[]",
          "name": "destinations",
          "type": "address[]"
        }
      ],
      "name": "rebuildCaches",
      "outputs": [],
      "stateMutability": "nonpayable",
      "type": "function"
    },
    {
      "inputs": [
        {
          "internalType": "bytes32",
          "name": "name",
          "type": "bytes32"
        },
        {
          "internalType": "string",
          "name": "reason",
          "type": "string"
        }
      ],
      "name": "requireAddress",
      "outputs": [
        {
          "internalType": "address",
          "name": "",
          "type": "address"
        }
      ],
      "stateMutability": "view",
      "type": "function"
    },
    {
      "inputs": [
        {
          "internalType": "address",
          "name": "_owner",
          "type": "address"
        }
      ],
      "name": "setOwner",
      "outputs": [],
      "stateMutability": "nonpayable",
      "type": "function"
    }
  ],
  "bytecode": {
    "object": "0x608060405234801561001057600080fd5b506040516109f33803806109f383398101604081905261002f91610123565b806001600160a01b03811661008a5760405162461bcd60e51b815260206004820152601960248201527f4f776e657220616464726573732063616e6e6f74206265203000000000000000604482015260640160405180910390fd5b806100936100ef565b80546001600160a01b0319166001600160a01b03928316179055604080516000815291831660208301527fb532073b38c83145e3e5135377a08bf9aab55bc0fd7c1179cd4fb995d2a5159c910160405180910390a15050610174565b60008061011d60017fcff0e0480428143fe23f95942cae3bd7f399ba9b2357c9345d01021c9ceef47f610153565b92915050565b60006020828403121561013557600080fd5b81516001600160a01b038116811461014c57600080fd5b9392505050565b8181038181111561011d57634e487b7160e01b600052601160045260246000fd5b610870806101836000396000f3fe608060405234801561001057600080fd5b506004361061007d5760003560e01c8063766f78151161005b578063766f7815146100da5780638da5cb5b146100ed5780639f42102f146100f5578063ab0b8f771461011857600080fd5b806313af40351461008257806321f8a7211461009757806371fdcfc6146100c7575b600080fd5b610095610090366004610600565b61012b565b005b6100aa6100a5366004610624565b610204565b6040516001600160a01b0390911681526020015b60405180910390f35b6100aa6100d536600461063d565b610228565b6100956100e8366004610705565b61027a565b6100aa610316565b610108610103366004610747565b61032f565b60405190151581526020016100be565b610095610126366004610747565b6103d9565b61013361050c565b6001600160a01b03811661018e5760405162461bcd60e51b815260206004820152601960248201527f4f776e657220616464726573732063616e6e6f7420626520300000000000000060448201526064015b60405180910390fd5b7fb532073b38c83145e3e5135377a08bf9aab55bc0fd7c1179cd4fb995d2a5159c6101b7610586565b54604080516001600160a01b03928316815291841660208301520160405180910390a1806101e3610586565b80546001600160a01b0319166001600160a01b039290921691909117905550565b600061020e6105ba565b60009283526020525060409020546001600160a01b031690565b6000806102336105ba565b600086815260209190915260409020546001600160a01b0316905083838261026f5760405162461bcd60e51b81526004016101859291906107b3565b509095945050505050565b60005b8181101561031157828282818110610297576102976107e2565b90506020020160208101906102ac9190610600565b6001600160a01b03166316440e336040518163ffffffff1660e01b8152600401600060405180830381600087803b1580156102e657600080fd5b505af11580156102fa573d6000803e3d6000fd5b5050505080806103099061080e565b91505061027d565b505050565b6000610320610586565b546001600160a01b0316919050565b6000805b848110156103cb5783838281811061034d5761034d6107e2565b90506020020160208101906103629190610600565b6001600160a01b03166103736105ba565b6000888885818110610387576103876107e2565b60209081029290920135835250810191909152604001600020546001600160a01b0316146103b95760009150506103d1565b806103c38161080e565b915050610333565b50600190505b949350505050565b6103e161050c565b8281146104305760405162461bcd60e51b815260206004820152601860248201527f496e707574206c656e67746873206d757374206d6174636800000000000000006044820152606401610185565b60005b8381101561050557600085858381811061044f5761044f6107e2565b905060200201359050600084848481811061046c5761046c6107e2565b90506020020160208101906104819190610600565b90508061048c6105ba565b6000848152602091825260409081902080546001600160a01b0319166001600160a01b039485161790558051858152928416918301919091527fefe884cc7f82a6cf3cf68f64221519dcf96b5cae9048e1bb008ee32cd05aaa91910160405180910390a1505080806104fd9061080e565b915050610433565b5050505050565b610514610586565b546001600160a01b031633146105845760405162461bcd60e51b815260206004820152602f60248201527f4f6e6c792074686520636f6e7472616374206f776e6572206d6179207065726660448201526e37b936903a3434b99030b1ba34b7b760891b6064820152608401610185565b565b6000806105b460017fcff0e0480428143fe23f95942cae3bd7f399ba9b2357c9345d01021c9ceef47f610827565b92915050565b6000806105b460017fd05931fa0620f014c07bdb1ce7efea74702b3668ddba623f56d2f88a6b69955f610827565b6001600160a01b03811681146105fd57600080fd5b50565b60006020828403121561061257600080fd5b813561061d816105e8565b9392505050565b60006020828403121561063657600080fd5b5035919050565b60008060006040848603121561065257600080fd5b83359250602084013567ffffffffffffffff8082111561067157600080fd5b818601915086601f83011261068557600080fd5b81358181111561069457600080fd5b8760208285010111156106a657600080fd5b6020830194508093505050509250925092565b60008083601f8401126106cb57600080fd5b50813567ffffffffffffffff8111156106e357600080fd5b6020830191508360208260051b85010111156106fe57600080fd5b9250929050565b6000806020838503121561071857600080fd5b823567ffffffffffffffff81111561072f57600080fd5b61073b858286016106b9565b90969095509350505050565b6000806000806040858703121561075d57600080fd5b843567ffffffffffffffff8082111561077557600080fd5b610781888389016106b9565b9096509450602087013591508082111561079a57600080fd5b506107a7878288016106b9565b95989497509550505050565b60208152816020820152818360408301376000818301604090810191909152601f909201601f19160101919050565b634e487b7160e01b600052603260045260246000fd5b634e487b7160e01b600052601160045260246000fd5b600060018201610820576108206107f8565b5060010190565b818103818111156105b4576105b46107f856fea2646970667358221220d921cbdea1ea6c4f6e0b2a50cd6f2c72bc4f0343365f38ede85932c01aff13e264736f6c63430008110033",
    "linkReferences": {}
  },
  "methodIdentifiers": {
    "areAddressesImported(bytes32[],address[])": "9f42102f",
    "getAddress(bytes32)": "21f8a721",
    "importAddresses(bytes32[],address[])": "ab0b8f77",
    "owner()": "8da5cb5b",
    "rebuildCaches(address[])": "766f7815",
    "requireAddress(bytes32,string)": "71fdcfc6",
    "setOwner(address)": "13af4035"
  },
  "id": 13
}