{
  "abi": [
    {
      "inputs": [
        {
          "internalType": "address",
          "name": "_owner",
          "type": "address"
        }
      ],
      "stateMutability": "nonpayable",
      "type": "constructor"
    },
    {
      "anonymous": false,
      "inputs": [
        {
          "indexed": false,
          "internalType": "bytes32",
          "name": "name",
          "type": "bytes32"
        },
        {
          "indexed": false,
          "internalType": "address",
          "name": "destination",
          "type": "address"
        }
      ],
      "name": "AddressImported",
      "type": "event"
    },
    {
      "anonymous": false,
      "inputs": [
        {
          "indexed": false,
          "internalType": "address",
          "name": "oldOwner",
          "type": "address"
        },
        {
          "indexed": false,
          "internalType": "address",
          "name": "newOwner",
          "type": "address"
        }
      ],
      "name": "OwnerChanged",
      "type": "event"
    },
    {
      "anonymous": false,
      "inputs": [
        {
          "indexed": false,
          "internalType": "address",
          "name": "newOwner",
          "type": "address"
        }
      ],
      "name": "OwnerNominated",
      "type": "event"
    },
    {
      "inputs": [],
      "name": "acceptOwnership",
      "outputs": [],
      "stateMutability": "nonpayable",
      "type": "function"
    },
    {
      "inputs": [
        {
          "internalType": "bytes32[]",
          "name": "names",
          "type": "bytes32[]"
        },
        {
          "internalType": "address[]",
          "name": "destinations",
          "type": "address[]"
        }
      ],
      "name": "areAddressesImported",
      "outputs": [
        {
          "internalType": "bool",
          "name": "",
          "type": "bool"
        }
      ],
      "stateMutability": "view",
      "type": "function"
    },
    {
      "inputs": [
        {
          "internalType": "bytes32",
          "name": "name",
          "type": "bytes32"
        }
      ],
      "name": "getAddress",
      "outputs": [
        {
          "internalType": "address",
          "name": "",
          "type": "address"
        }
      ],
      "stateMutability": "view",
      "type": "function"
    },
    {
      "inputs": [
        {
          "internalType": "bytes32[]",
          "name": "names",
          "type": "bytes32[]"
        },
        {
          "internalType": "address[]",
          "name": "destinations",
          "type": "address[]"
        }
      ],
      "name": "importAddresses",
      "outputs": [],
      "stateMutability": "nonpayable",
      "type": "function"
    },
    {
      "inputs": [
        {
          "internalType": "address",
          "name": "_newOwner",
          "type": "address"
        }
      ],
      "name": "nominateOwner",
      "outputs": [],
      "stateMutability": "nonpayable",
      "type": "function"
    },
    {
      "inputs": [],
      "name": "owner",
      "outputs": [
        {
          "internalType": "address",
          "name": "",
          "type": "address"
        }
      ],
      "stateMutability": "view",
      "type": "function"
    },
    {
      "inputs": [
        {
          "internalType": "contract IMixinResolver[]",
          "name": "destinations",
          "type": "address[]"
        }
      ],
      "name": "rebuildCaches",
      "outputs": [],
      "stateMutability": "nonpayable",
      "type": "function"
    },
    {
      "inputs": [
        {
          "internalType": "bytes32",
          "name": "name",
          "type": "bytes32"
        },
        {
          "internalType": "string",
          "name": "reason",
          "type": "string"
        }
      ],
      "name": "requireAddress",
      "outputs": [
        {
          "internalType": "address",
          "name": "",
          "type": "address"
        }
      ],
      "stateMutability": "view",
      "type": "function"
    }
  ],
  "bytecode": {
    "object": "0x608060405234801561001057600080fd5b50604051610b15380380610b1583398101604081905261002f91610123565b806001600160a01b03811661008a5760405162461bcd60e51b815260206004820152601960248201527f4f776e657220616464726573732063616e6e6f74206265203000000000000000604482015260640160405180910390fd5b806100936100ef565b80546001600160a01b0319166001600160a01b03928316179055604080516000815291831660208301527fb532073b38c83145e3e5135377a08bf9aab55bc0fd7c1179cd4fb995d2a5159c910160405180910390a15050610174565b60008061011d60017ff17cad8fceff31ceb438603b54f4f62459e42f595dac914188f57e2ac0b38895610153565b92915050565b60006020828403121561013557600080fd5b81516001600160a01b038116811461014c57600080fd5b9392505050565b8181038181111561011d57634e487b7160e01b600052601160045260246000fd5b610992806101836000396000f3fe608060405234801561001057600080fd5b50600436106100885760003560e01c806379ba50971161005b57806379ba5097146100f85780638da5cb5b146101005780639f42102f14610108578063ab0b8f771461012b57600080fd5b806321f8a7211461008d5780635b94db27146100bd57806371fdcfc6146100d2578063766f7815146100e5575b600080fd5b6100a061009b36600461070a565b61013e565b6040516001600160a01b0390911681526020015b60405180910390f35b6100d06100cb36600461073b565b610162565b005b6100a06100e036600461075f565b610223565b6100d06100f3366004610827565b610275565b6100d0610311565b6100a0610438565b61011b610116366004610869565b610451565b60405190151581526020016100b4565b6100d0610139366004610869565b6104fb565b600061014861062e565b60009283526020525060409020546001600160a01b031690565b61016a610662565b6001600160a01b0381166101c55760405162461bcd60e51b815260206004820152601960248201527f4f776e657220616464726573732063616e6e6f7420626520300000000000000060448201526064015b60405180910390fd5b806101ce6106dc565b60010180546001600160a01b0319166001600160a01b0392831617905560405190821681527f906a1c6bd7e3091ea86693dd029a831c19049ce77f1dce2ce0bab1cacbabce229060200160405180910390a150565b60008061022e61062e565b600086815260209190915260409020546001600160a01b0316905083838261026a5760405162461bcd60e51b81526004016101bc9291906108d5565b509095945050505050565b60005b8181101561030c5782828281811061029257610292610904565b90506020020160208101906102a7919061073b565b6001600160a01b03166316440e336040518163ffffffff1660e01b8152600401600060405180830381600087803b1580156102e157600080fd5b505af11580156102f5573d6000803e3d6000fd5b50505050808061030490610930565b915050610278565b505050565b600061031b6106dc565b600101546001600160a01b031690503381146103975760405162461bcd60e51b815260206004820152603560248201527f596f75206d757374206265206e6f6d696e61746564206265666f726520796f7560448201527402063616e20616363657074206f776e65727368697605c1b60648201526084016101bc565b7fb532073b38c83145e3e5135377a08bf9aab55bc0fd7c1179cd4fb995d2a5159c6103c06106dc565b54604080516001600160a01b03928316815291841660208301520160405180910390a1806103ec6106dc565b80546001600160a01b0319166001600160a01b039290921691909117905560006104146106dc565b60010180546001600160a01b0319166001600160a01b039290921691909117905550565b60006104426106dc565b546001600160a01b0316919050565b6000805b848110156104ed5783838281811061046f5761046f610904565b9050602002016020810190610484919061073b565b6001600160a01b031661049561062e565b60008888858181106104a9576104a9610904565b60209081029290920135835250810191909152604001600020546001600160a01b0316146104db5760009150506104f3565b806104e581610930565b915050610455565b50600190505b949350505050565b610503610662565b8281146105525760405162461bcd60e51b815260206004820152601860248201527f496e707574206c656e67746873206d757374206d61746368000000000000000060448201526064016101bc565b60005b8381101561062757600085858381811061057157610571610904565b905060200201359050600084848481811061058e5761058e610904565b90506020020160208101906105a3919061073b565b9050806105ae61062e565b6000848152602091825260409081902080546001600160a01b0319166001600160a01b039485161790558051858152928416918301919091527fefe884cc7f82a6cf3cf68f64221519dcf96b5cae9048e1bb008ee32cd05aaa91910160405180910390a15050808061061f90610930565b915050610555565b5050505050565b60008061065c60017fdaa85ad50d0870e565999bd2cee8130538f6a1cd6e6299fc62eff48de00d2725610949565b92915050565b61066a6106dc565b546001600160a01b031633146106da5760405162461bcd60e51b815260206004820152602f60248201527f4f6e6c792074686520636f6e7472616374206f776e6572206d6179207065726660448201526e37b936903a3434b99030b1ba34b7b760891b60648201526084016101bc565b565b60008061065c60017ff17cad8fceff31ceb438603b54f4f62459e42f595dac914188f57e2ac0b38895610949565b60006020828403121561071c57600080fd5b5035919050565b6001600160a01b038116811461073857600080fd5b50565b60006020828403121561074d57600080fd5b813561075881610723565b9392505050565b60008060006040848603121561077457600080fd5b83359250602084013567ffffffffffffffff8082111561079357600080fd5b818601915086601f8301126107a757600080fd5b8135818111156107b657600080fd5b8760208285010111156107c857600080fd5b6020830194508093505050509250925092565b60008083601f8401126107ed57600080fd5b50813567ffffffffffffffff81111561080557600080fd5b6020830191508360208260051b850101111561082057600080fd5b9250929050565b6000806020838503121561083a57600080fd5b823567ffffffffffffffff81111561085157600080fd5b61085d858286016107db565b90969095509350505050565b6000806000806040858703121561087f57600080fd5b843567ffffffffffffffff8082111561089757600080fd5b6108a3888389016107db565b909650945060208701359150808211156108bc57600080fd5b506108c9878288016107db565b95989497509550505050565b60208152816020820152818360408301376000818301604090810191909152601f909201601f19160101919050565b634e487b7160e01b600052603260045260246000fd5b634e487b7160e01b600052601160045260246000fd5b6000600182016109425761094261091a565b5060010190565b8181038181111561065c5761065c61091a56fea2646970667358221220fb92b7fc2f35f4f08cbce55683202e432d12233c0aa4ce92b25ff7b4c1dc784a64736f6c63430008110033",
    "linkReferences": {}
  },
  "methodIdentifiers": {
    "acceptOwnership()": "79ba5097",
    "areAddressesImported(bytes32[],address[])": "9f42102f",
    "getAddress(bytes32)": "21f8a721",
    "importAddresses(bytes32[],address[])": "ab0b8f77",
    "nominateOwner(address)": "5b94db27",
    "owner()": "8da5cb5b",
    "rebuildCaches(address[])": "766f7815",
    "requireAddress(bytes32,string)": "71fdcfc6"
  },
  "id": 13
}