{
  "abi": [
    {
      "inputs": [
        {
          "internalType": "address",
          "name": "_owner",
          "type": "address"
        }
      ],
      "stateMutability": "nonpayable",
      "type": "constructor"
    },
    {
      "anonymous": false,
      "inputs": [
        {
          "indexed": false,
          "internalType": "bytes32",
          "name": "name",
          "type": "bytes32"
        },
        {
          "indexed": false,
          "internalType": "address",
          "name": "destination",
          "type": "address"
        }
      ],
      "name": "AddressImported",
      "type": "event"
    },
    {
      "anonymous": false,
      "inputs": [
        {
          "indexed": false,
          "internalType": "address",
          "name": "oldOwner",
          "type": "address"
        },
        {
          "indexed": false,
          "internalType": "address",
          "name": "newOwner",
          "type": "address"
        }
      ],
      "name": "OwnerChanged",
      "type": "event"
    },
    {
      "anonymous": false,
      "inputs": [
        {
          "indexed": false,
          "internalType": "address",
          "name": "newOwner",
          "type": "address"
        }
      ],
      "name": "OwnerNominated",
      "type": "event"
    },
    {
      "inputs": [
        {
          "internalType": "bytes32[]",
          "name": "names",
          "type": "bytes32[]"
        },
        {
          "internalType": "address[]",
          "name": "destinations",
          "type": "address[]"
        }
      ],
      "name": "areAddressesImported",
      "outputs": [
        {
          "internalType": "bool",
          "name": "",
          "type": "bool"
        }
      ],
      "stateMutability": "view",
      "type": "function"
    },
    {
      "inputs": [
        {
          "internalType": "bytes32",
          "name": "name",
          "type": "bytes32"
        }
      ],
      "name": "getAddress",
      "outputs": [
        {
          "internalType": "address",
          "name": "",
          "type": "address"
        }
      ],
      "stateMutability": "view",
      "type": "function"
    },
    {
      "inputs": [
        {
          "internalType": "bytes32[]",
          "name": "names",
          "type": "bytes32[]"
        },
        {
          "internalType": "address[]",
          "name": "destinations",
          "type": "address[]"
        }
      ],
      "name": "importAddresses",
      "outputs": [],
      "stateMutability": "nonpayable",
      "type": "function"
    },
    {
      "inputs": [],
      "name": "owner",
      "outputs": [
        {
          "internalType": "address",
          "name": "",
          "type": "address"
        }
      ],
      "stateMutability": "view",
      "type": "function"
    },
    {
      "inputs": [
        {
          "internalType": "contract IMixinResolver[]",
          "name": "destinations",
          "type": "address[]"
        }
      ],
      "name": "rebuildCaches",
      "outputs": [],
      "stateMutability": "nonpayable",
      "type": "function"
    },
    {
      "inputs": [
        {
          "internalType": "bytes32",
          "name": "",
          "type": "bytes32"
        }
      ],
      "name": "repository",
      "outputs": [
        {
          "internalType": "address",
          "name": "",
          "type": "address"
        }
      ],
      "stateMutability": "view",
      "type": "function"
    },
    {
      "inputs": [
        {
          "internalType": "bytes32",
          "name": "name",
          "type": "bytes32"
        },
        {
          "internalType": "string",
          "name": "reason",
          "type": "string"
        }
      ],
      "name": "requireAndGetAddress",
      "outputs": [
        {
          "internalType": "address",
          "name": "",
          "type": "address"
        }
      ],
      "stateMutability": "view",
      "type": "function"
    }
  ],
  "bytecode": {
    "object": "0x608060405234801561001057600080fd5b5060405161081c38038061081c83398101604081905261002f916100e8565b806001600160a01b03811661008a5760405162461bcd60e51b815260206004820152601960248201527f4f776e657220616464726573732063616e6e6f74206265203000000000000000604482015260640160405180910390fd5b600080546001600160a01b0319166001600160a01b03831690811782556040805192835260208301919091527fb532073b38c83145e3e5135377a08bf9aab55bc0fd7c1179cd4fb995d2a5159c910160405180910390a15050610118565b6000602082840312156100fa57600080fd5b81516001600160a01b038116811461011157600080fd5b9392505050565b6106f5806101276000396000f3fe608060405234801561001057600080fd5b506004361061007d5760003560e01c80638da5cb5b1161005b5780638da5cb5b146101065780639f42102f14610119578063ab0b8f771461013c578063dacb2d011461014f57600080fd5b8063187f79351461008257806321f8a721146100c8578063766f7815146100f1575b600080fd5b6100ab610090366004610488565b6001602052600090815260409020546001600160a01b031681565b6040516001600160a01b0390911681526020015b60405180910390f35b6100ab6100d6366004610488565b6000908152600160205260409020546001600160a01b031690565b6101046100ff3660046104ed565b610162565b005b6000546100ab906001600160a01b031681565b61012c61012736600461052f565b6101fe565b60405190151581526020016100bf565b61010461014a36600461052f565b6102a2565b6100ab61015d36600461059b565b6103d0565b60005b818110156101f95782828281811061017f5761017f610617565b90506020020160208101906101949190610645565b6001600160a01b031663741853606040518163ffffffff1660e01b8152600401600060405180830381600087803b1580156101ce57600080fd5b505af11580156101e2573d6000803e3d6000fd5b5050505080806101f190610669565b915050610165565b505050565b6000805b848110156102945783838281811061021c5761021c610617565b90506020020160208101906102319190610645565b6001600160a01b03166001600088888581811061025057610250610617565b60209081029290920135835250810191909152604001600020546001600160a01b03161461028257600091505061029a565b8061028c81610669565b915050610202565b50600190505b949350505050565b6102aa610414565b8281146102fe5760405162461bcd60e51b815260206004820152601860248201527f496e707574206c656e67746873206d757374206d61746368000000000000000060448201526064015b60405180910390fd5b60005b838110156103c957600085858381811061031d5761031d610617565b905060200201359050600084848481811061033a5761033a610617565b905060200201602081019061034f9190610645565b60008381526001602090815260409182902080546001600160a01b0319166001600160a01b0385169081179091558251868152918201529192507fefe884cc7f82a6cf3cf68f64221519dcf96b5cae9048e1bb008ee32cd05aaa91910160405180910390a1505080806103c190610669565b915050610301565b5050505050565b6000838152600160205260408120546001600160a01b03168383826104095760405162461bcd60e51b81526004016102f5929190610690565b509095945050505050565b6000546001600160a01b031633146104865760405162461bcd60e51b815260206004820152602f60248201527f4f6e6c792074686520636f6e7472616374206f776e6572206d6179207065726660448201526e37b936903a3434b99030b1ba34b7b760891b60648201526084016102f5565b565b60006020828403121561049a57600080fd5b5035919050565b60008083601f8401126104b357600080fd5b50813567ffffffffffffffff8111156104cb57600080fd5b6020830191508360208260051b85010111156104e657600080fd5b9250929050565b6000806020838503121561050057600080fd5b823567ffffffffffffffff81111561051757600080fd5b610523858286016104a1565b90969095509350505050565b6000806000806040858703121561054557600080fd5b843567ffffffffffffffff8082111561055d57600080fd5b610569888389016104a1565b9096509450602087013591508082111561058257600080fd5b5061058f878288016104a1565b95989497509550505050565b6000806000604084860312156105b057600080fd5b83359250602084013567ffffffffffffffff808211156105cf57600080fd5b818601915086601f8301126105e357600080fd5b8135818111156105f257600080fd5b87602082850101111561060457600080fd5b6020830194508093505050509250925092565b634e487b7160e01b600052603260045260246000fd5b6001600160a01b038116811461064257600080fd5b50565b60006020828403121561065757600080fd5b81356106628161062d565b9392505050565b60006001820161068957634e487b7160e01b600052601160045260246000fd5b5060010190565b60208152816020820152818360408301376000818301604090810191909152601f909201601f1916010191905056fea2646970667358221220cd16da34c67f8facea22684f68895d1ed27e809424b0f59b26af2c7c2e6852cd64736f6c63430008110033",
    "linkReferences": {}
  },
  "methodIdentifiers": {
    "areAddressesImported(bytes32[],address[])": "9f42102f",
    "getAddress(bytes32)": "21f8a721",
    "importAddresses(bytes32[],address[])": "ab0b8f77",
    "owner()": "8da5cb5b",
    "rebuildCaches(address[])": "766f7815",
    "repository(bytes32)": "187f7935",
    "requireAndGetAddress(bytes32,string)": "dacb2d01"
  },
  "id": 0
}