{
  "abi": [
    {
      "inputs": [
        {
          "internalType": "address",
          "name": "_cacheAddr",
          "type": "address"
        }
      ],
      "stateMutability": "nonpayable",
      "type": "constructor"
    },
    {
      "anonymous": true,
      "inputs": [
        {
          "indexed": true,
          "internalType": "bytes4",
          "name": "sig",
          "type": "bytes4"
        },
        {
          "indexed": true,
          "internalType": "address",
          "name": "guy",
          "type": "address"
        },
        {
          "indexed": true,
          "internalType": "bytes32",
          "name": "foo",
          "type": "bytes32"
        },
        {
          "indexed": true,
          "internalType": "bytes32",
          "name": "bar",
          "type": "bytes32"
        },
        {
          "indexed": false,
          "internalType": "uint256",
          "name": "wad",
          "type": "uint256"
        },
        {
          "indexed": false,
          "internalType": "bytes",
          "name": "fax",
          "type": "bytes"
        }
      ],
      "name": "LogNote",
      "type": "event"
    },
    {
      "anonymous": false,
      "inputs": [
        {
          "indexed": true,
          "internalType": "address",
          "name": "authority",
          "type": "address"
        }
      ],
      "name": "LogSetAuthority",
      "type": "event"
    },
    {
      "anonymous": false,
      "inputs": [
        {
          "indexed": true,
          "internalType": "address",
          "name": "owner",
          "type": "address"
        }
      ],
      "name": "LogSetOwner",
      "type": "event"
    },
    {
      "inputs": [],
      "name": "authority",
      "outputs": [
        {
          "internalType": "contract DSAuthority",
          "name": "",
          "type": "address"
        }
      ],
      "stateMutability": "view",
      "type": "function"
    },
    {
      "inputs": [],
      "name": "cache",
      "outputs": [
        {
          "internalType": "contract DSProxyCache",
          "name": "",
          "type": "address"
        }
      ],
      "stateMutability": "view",
      "type": "function"
    },
    {
      "inputs": [
        {
          "internalType": "address",
          "name": "_target",
          "type": "address"
        },
        {
          "internalType": "bytes",
          "name": "_data",
          "type": "bytes"
        }
      ],
      "name": "execute",
      "outputs": [
        {
          "internalType": "bytes32",
          "name": "response",
          "type": "bytes32"
        }
      ],
      "stateMutability": "payable",
      "type": "function"
    },
    {
      "inputs": [
        {
          "internalType": "bytes",
          "name": "_code",
          "type": "bytes"
        },
        {
          "internalType": "bytes",
          "name": "_data",
          "type": "bytes"
        }
      ],
      "name": "execute",
      "outputs": [
        {
          "internalType": "address",
          "name": "target",
          "type": "address"
        },
        {
          "internalType": "bytes32",
          "name": "response",
          "type": "bytes32"
        }
      ],
      "stateMutability": "payable",
      "type": "function"
    },
    {
      "inputs": [],
      "name": "owner",
      "outputs": [
        {
          "internalType": "address",
          "name": "",
          "type": "address"
        }
      ],
      "stateMutability": "view",
      "type": "function"
    },
    {
      "inputs": [
        {
          "internalType": "contract DSAuthority",
          "name": "authority_",
          "type": "address"
        }
      ],
      "name": "setAuthority",
      "outputs": [],
      "stateMutability": "nonpayable",
      "type": "function"
    },
    {
      "inputs": [
        {
          "internalType": "address",
          "name": "_cacheAddr",
          "type": "address"
        }
      ],
      "name": "setCache",
      "outputs": [
        {
          "internalType": "bool",
          "name": "",
          "type": "bool"
        }
      ],
      "stateMutability": "payable",
      "type": "function"
    },
    {
      "inputs": [
        {
          "internalType": "address",
          "name": "owner_",
          "type": "address"
        }
      ],
      "name": "setOwner",
      "outputs": [],
      "stateMutability": "nonpayable",
      "type": "function"
    }
  ],
  "bytecode": {
    "object": "0x60806040523480156200001157600080fd5b5060405162000c9e38038062000c9e8339810160408190526200003491620002d8565b600180546001600160a01b031916339081179091556040517fce241d7ca1f669fee44b6fc00b8eba2df3bb514eed0f6f668f8f89096e81ed9490600090a26200007d81620000d6565b620000cf5760405162461bcd60e51b815260206004820152601960248201527f445350726f78793a20736574206361636865206661696c65640000000000000060448201526064015b60405180910390fd5b5062000364565b6000620000ef336001600160e01b0319833516620001f2565b6200013d5760405162461bcd60e51b815260206004820152601660248201527f4453417574683a206e6f7420617574686f72697a6564000000000000000000006044820152606401620000c6565b6004356024356001600160a01b0384166200019b5760405162461bcd60e51b815260206004820152601e60248201527f445350726f78793a20696e76616c6964206361636865206164647265737300006044820152606401620000c6565b600280546001600160a01b0386166001600160a01b031990911617905560405160019350819083903390600080356001600160e01b03191691620001e391349136906200030a565b60405180910390a45050919050565b6000306001600160a01b038416036200020e57506001620002d2565b6001546001600160a01b03908116908416036200022e57506001620002d2565b6000546001600160a01b03166200024857506000620002d2565b60005460405163b700961360e01b81526001600160a01b0385811660048301523060248301526001600160e01b0319851660448301529091169063b700961390606401602060405180830381865afa158015620002a9573d6000803e3d6000fd5b505050506040513d601f19601f82011682018060405250810190620002cf919062000340565b90505b92915050565b600060208284031215620002eb57600080fd5b81516001600160a01b03811681146200030357600080fd5b9392505050565b83815260406020820152816040820152818360608301376000818301606090810191909152601f909201601f1916010192915050565b6000602082840312156200035357600080fd5b815180151581146200030357600080fd5b61092a80620003746000396000f3fe60806040526004361061007b5760003560e01c80637a9e5e4b1161004e5780637a9e5e4b146101325780638da5cb5b14610152578063948f507614610172578063bf7e214f1461019557600080fd5b806313af4035146100805780631cff79cd146100a25780631f6a1eb9146100c857806360c7d295146100fa575b600080fd5b34801561008c57600080fd5b506100a061009b366004610690565b6101b5565b005b6100b56100b0366004610757565b61023a565b6040519081526020015b60405180910390f35b6100db6100d63660046107a7565b61032d565b604080516001600160a01b0390931683526020830191909152016100bf565b34801561010657600080fd5b5060025461011a906001600160a01b031681565b6040516001600160a01b0390911681526020016100bf565b34801561013e57600080fd5b506100a061014d366004610690565b61043c565b34801561015e57600080fd5b5060015461011a906001600160a01b031681565b610185610180366004610690565b6104b6565b60405190151581526020016100bf565b3480156101a157600080fd5b5060005461011a906001600160a01b031681565b6101cb336000356001600160e01b03191661059b565b6101f05760405162461bcd60e51b81526004016101e790610801565b60405180910390fd5b600180546001600160a01b0319166001600160a01b0383169081179091556040517fce241d7ca1f669fee44b6fc00b8eba2df3bb514eed0f6f668f8f89096e81ed9490600090a250565b6000610252336000356001600160e01b03191661059b565b61026e5760405162461bcd60e51b81526004016101e790610801565b6004356024356001600160a01b0385166102ca5760405162461bcd60e51b815260206004820152601760248201527f445350726f78793a20696e76616c69642074617267657400000000000000000060448201526064016101e7565b60206000855160208701885af46000519350806102e657600080fd5b508082336001600160a01b03166000356001600160e01b0319166001600160e01b0319163460003660405161031d93929190610831565b60405180910390a4505092915050565b6002546040516322fd145760e21b815260009182916001600160a01b0390911690638bf4515c90610362908790600401610867565b602060405180830381865afa15801561037f573d6000803e3d6000fd5b505050506040513d601f19601f820116820180604052508101906103a391906108b5565b91506001600160a01b03821661042957600254604051633f6861d960e11b81526001600160a01b0390911690637ed0c3b2906103e3908790600401610867565b6020604051808303816000875af1158015610402573d6000803e3d6000fd5b505050506040513d601f19601f8201168201806040525081019061042691906108b5565b91505b610433828461023a565b90509250929050565b610452336000356001600160e01b03191661059b565b61046e5760405162461bcd60e51b81526004016101e790610801565b600080546001600160a01b0319166001600160a01b038316908117825560405190917f1abebea81bfa2637f28358c371278fb15ede7ea8dd28d2e03b112ff6d936ada491a250565b60006104ce336000356001600160e01b03191661059b565b6104ea5760405162461bcd60e51b81526004016101e790610801565b6004356024356001600160a01b0384166105465760405162461bcd60e51b815260206004820152601e60248201527f445350726f78793a20696e76616c69642063616368652061646472657373000060448201526064016101e7565b600280546001600160a01b0386166001600160a01b031990911617905560405160019350819083903390600080356001600160e01b0319169161058c9134913690610831565b60405180910390a45050919050565b6000306001600160a01b038416036105b557506001610672565b6001546001600160a01b03908116908416036105d357506001610672565b6000546001600160a01b03166105eb57506000610672565b60005460405163b700961360e01b81526001600160a01b0385811660048301523060248301526001600160e01b0319851660448301529091169063b700961390606401602060405180830381865afa15801561064b573d6000803e3d6000fd5b505050506040513d601f19601f8201168201806040525081019061066f91906108d2565b90505b92915050565b6001600160a01b038116811461068d57600080fd5b50565b6000602082840312156106a257600080fd5b81356106ad81610678565b9392505050565b634e487b7160e01b600052604160045260246000fd5b600082601f8301126106db57600080fd5b813567ffffffffffffffff808211156106f6576106f66106b4565b604051601f8301601f19908116603f0116810190828211818310171561071e5761071e6106b4565b8160405283815286602085880101111561073757600080fd5b836020870160208301376000602085830101528094505050505092915050565b6000806040838503121561076a57600080fd5b823561077581610678565b9150602083013567ffffffffffffffff81111561079157600080fd5b61079d858286016106ca565b9150509250929050565b600080604083850312156107ba57600080fd5b823567ffffffffffffffff808211156107d257600080fd5b6107de868387016106ca565b935060208501359150808211156107f457600080fd5b5061079d858286016106ca565b6020808252601690820152751114d05d5d1a0e881b9bdd08185d5d1a1bdc9a5e995960521b604082015260600190565b83815260406020820152816040820152818360608301376000818301606090810191909152601f909201601f1916010192915050565b600060208083528351808285015260005b8181101561089457858101830151858201604001528201610878565b506000604082860101526040601f19601f8301168501019250505092915050565b6000602082840312156108c757600080fd5b81516106ad81610678565b6000602082840312156108e457600080fd5b815180151581146106ad57600080fdfea2646970667358221220728a4e488d386001c5563f842e444ebc3c062d26a26639610aeed8c84d7205a064736f6c63430008110033",
    "linkReferences": {}
  },
  "methodIdentifiers": {
    "authority()": "bf7e214f",
    "cache()": "60c7d295",
    "execute(address,bytes)": "1cff79cd",
    "execute(bytes,bytes)": "1f6a1eb9",
    "owner()": "8da5cb5b",
    "setAuthority(address)": "7a9e5e4b",
    "setCache(address)": "948f5076",
    "setOwner(address)": "13af4035"
  },
  "id": 0
}