{
  "abi": [
    {
      "constant": false,
      "inputs": [
        {
          "name": "owner_",
          "type": "address"
        }
      ],
      "name": "setOwner",
      "outputs": [],
      "payable": false,
      "stateMutability": "nonpayable",
      "type": "function"
    },
    {
      "constant": false,
      "inputs": [
        {
          "name": "_target",
          "type": "address"
        },
        {
          "name": "_data",
          "type": "bytes"
        }
      ],
      "name": "execute",
      "outputs": [
        {
          "name": "response",
          "type": "bytes32"
        }
      ],
      "payable": true,
      "stateMutability": "payable",
      "type": "function"
    },
    {
      "constant": false,
      "inputs": [
        {
          "name": "_code",
          "type": "bytes"
        },
        {
          "name": "_data",
          "type": "bytes"
        }
      ],
      "name": "execute",
      "outputs": [
        {
          "name": "target",
          "type": "address"
        },
        {
          "name": "response",
          "type": "bytes32"
        }
      ],
      "payable": true,
      "stateMutability": "payable",
      "type": "function"
    },
    {
      "constant": true,
      "inputs": [],
      "name": "cache",
      "outputs": [
        {
          "name": "",
          "type": "address"
        }
      ],
      "payable": false,
      "stateMutability": "view",
      "type": "function"
    },
    {
      "constant": false,
      "inputs": [
        {
          "name": "authority_",
          "type": "address"
        }
      ],
      "name": "setAuthority",
      "outputs": [],
      "payable": false,
      "stateMutability": "nonpayable",
      "type": "function"
    },
    {
      "constant": true,
      "inputs": [],
      "name": "owner",
      "outputs": [
        {
          "name": "",
          "type": "address"
        }
      ],
      "payable": false,
      "stateMutability": "view",
      "type": "function"
    },
    {
      "constant": false,
      "inputs": [
        {
          "name": "_cacheAddr",
          "type": "address"
        }
      ],
      "name": "setCache",
      "outputs": [
        {
          "name": "",
          "type": "bool"
        }
      ],
      "payable": false,
      "stateMutability": "nonpayable",
      "type": "function"
    },
    {
      "constant": true,
      "inputs": [],
      "name": "authority",
      "outputs": [
        {
          "name": "",
          "type": "address"
        }
      ],
      "payable": false,
      "stateMutability": "view",
      "type": "function"
    },
    {
      "inputs": [
        {
          "name": "_cacheAddr",
          "type": "address"
        }
      ],
      "payable": false,
      "stateMutability": "nonpayable",
      "type": "constructor"
    },
    {
      "payable": true,
      "stateMutability": "payable",
      "type": "fallback"
    },
    {
      "anonymous": true,
      "inputs": [
        {
          "indexed": true,
          "name": "sig",
          "type": "bytes4"
        },
        {
          "indexed": true,
          "name": "guy",
          "type": "address"
        },
        {
          "indexed": true,
          "name": "foo",
          "type": "bytes32"
        },
        {
          "indexed": true,
          "name": "bar",
          "type": "bytes32"
        },
        {
          "indexed": false,
          "name": "wad",
          "type": "uint256"
        },
        {
          "indexed": false,
          "name": "fax",
          "type": "bytes"
        }
      ],
      "name": "LogNote",
      "type": "event"
    },
    {
      "anonymous": false,
      "inputs": [
        {
          "indexed": true,
          "name": "authority",
          "type": "address"
        }
      ],
      "name": "LogSetAuthority",
      "type": "event"
    },
    {
      "anonymous": false,
      "inputs": [
        {
          "indexed": true,
          "name": "owner",
          "type": "address"
        }
      ],
      "name": "LogSetOwner",
      "type": "event"
    }
  ],
  "bytecode": {
    "object": "0x608060405234801561001057600080fd5b50604051602080610adc833981016040819052905160018054600160a060020a0319163390811790915590917fce241d7ca1f669fee44b6fc00b8eba2df3bb514eed0f6f668f8f89096e81ed9490600090a26100718161008260201b60201c565b151561007c57600080fd5b5061028a565b60006100b8336000357fffffffff000000000000000000000000000000000000000000000000000000001661016960201b60201c565b15156100c357600080fd5b604080513480825260208201838152369383018490526004359360243593849386933393600080357fffffffff0000000000000000000000000000000000000000000000000000000016949092606082018484808284376040519201829003965090945050505050a4600160a060020a038416151561014157600080fd5b60028054600160a060020a038616600160a060020a0319909116179055600192505050919050565b6000600160a060020a03831630141561018457506001610284565b600154600160a060020a03848116911614156101a257506001610284565b600054600160a060020a031615156101bc57506000610284565b60008054604080517fb7009613000000000000000000000000000000000000000000000000000000008152600160a060020a0387811660048301523060248301527fffffffff00000000000000000000000000000000000000000000000000000000871660448301529151919092169263b700961392606480820193602093909283900390910190829087803b15801561025557600080fd5b505af1158015610269573d6000803e3d6000fd5b505050506040513d602081101561027f57600080fd5b505190505b92915050565b610843806102996000396000f3006080604052600436106100715760003560e01c63ffffffff16806313af4035146100735780631cff79cd146100945780631f6a1eb91461010057806360c7d295146101ad5780637a9e5e4b146101de5780638da5cb5b146101ff578063948f507614610214578063bf7e214f14610249575b005b34801561007f57600080fd5b50610071600160a060020a036004351661025e565b60408051602060046024803582810135601f81018590048502860185019096528585526100ee958335600160a060020a03169536956044949193909101919081908401838280828437509497506102dc9650505050505050565b60408051918252519081900360200190f35b6040805160206004803580820135601f810184900484028501840190955284845261018a94369492936024939284019190819084018382808284375050604080516020601f89358b018035918201839004830284018301909452808352979a9998810197919650918201945092508291508401838280828437509497506103999650505050505050565b60408051600160a060020a03909316835260208301919091528051918290030190f35b3480156101b957600080fd5b506101c26105a9565b60408051600160a060020a039092168252519081900360200190f35b3480156101ea57600080fd5b50610071600160a060020a03600435166105b8565b34801561020b57600080fd5b506101c2610632565b34801561022057600080fd5b50610235600160a060020a0360043516610641565b604080519115158252519081900360200190f35b34801561025557600080fd5b506101c26106ff565b61027433600035600160e060020a03191661070e565b151561027f57600080fd5b6001805473ffffffffffffffffffffffffffffffffffffffff1916600160a060020a0383811691909117918290556040519116907fce241d7ca1f669fee44b6fc00b8eba2df3bb514eed0f6f668f8f89096e81ed9490600090a250565b60006102f433600035600160e060020a03191661070e565b15156102ff57600080fd5b60408051348082526020820183815236938301849052600435936024359384938693339360008035600160e060020a031916949092606082018484808284376040519201829003965090945050505050a4600160a060020a038516151561036557600080fd5b60206000855160208701886113885a03f4600051935080156001811461038a5761038f565b600080fd5b5050505092915050565b6002546040517f8bf4515c0000000000000000000000000000000000000000000000000000000081526020600482018181528551602484015285516000948594600160a060020a0390911693638bf4515c93899390928392604490910191908501908083838b5b83811015610418578181015183820152602001610400565b50505050905090810190601f1680156104455780820380516001836020036101000a031916815260200191505b5092505050602060405180830381600087803b15801561046457600080fd5b505af1158015610478573d6000803e3d6000fd5b505050506040513d602081101561048e57600080fd5b50519150600160a060020a0382161515610596576002546040517f7ed0c3b2000000000000000000000000000000000000000000000000000000008152602060048201818152875160248401528751600160a060020a0390941693637ed0c3b293899383926044909201919085019080838360005b8381101561051b578181015183820152602001610503565b50505050905090810190601f1680156105485780820380516001836020036101000a031916815260200191505b5092505050602060405180830381600087803b15801561056757600080fd5b505af115801561057b573d6000803e3d6000fd5b505050506040513d602081101561059157600080fd5b505191505b6105a082846102dc565b90509250929050565b600254600160a060020a031681565b6105ce33600035600160e060020a03191661070e565b15156105d957600080fd5b6000805473ffffffffffffffffffffffffffffffffffffffff1916600160a060020a03838116919091178083556040519116917f1abebea81bfa2637f28358c371278fb15ede7ea8dd28d2e03b112ff6d936ada491a250565b600154600160a060020a031681565b600061065933600035600160e060020a03191661070e565b151561066457600080fd5b60408051348082526020820183815236938301849052600435936024359384938693339360008035600160e060020a031916949092606082018484808284376040519201829003965090945050505050a4600160a060020a03841615156106ca57600080fd5b60028054600160a060020a03861673ffffffffffffffffffffffffffffffffffffffff19909116179055600192505050919050565b600054600160a060020a031681565b6000600160a060020a03831630141561072957506001610811565b600154600160a060020a038481169116141561074757506001610811565b600054600160a060020a0316151561076157506000610811565b60008054604080517fb7009613000000000000000000000000000000000000000000000000000000008152600160a060020a038781166004830152306024830152600160e060020a0319871660448301529151919092169263b700961392606480820193602093909283900390910190829087803b1580156107e257600080fd5b505af11580156107f6573d6000803e3d6000fd5b505050506040513d602081101561080c57600080fd5b505190505b929150505600a165627a7a723058209a7502731ea52865874ed3fdd0c7b93d3095315e890c2ece9eed461d49e2454c0029",
    "linkReferences": {}
  },
  "methodIdentifiers": {
    "authority()": "bf7e214f",
    "cache()": "60c7d295",
    "execute(address,bytes)": "1cff79cd",
    "execute(bytes,bytes)": "1f6a1eb9",
    "owner()": "8da5cb5b",
    "setAuthority(address)": "7a9e5e4b",
    "setCache(address)": "948f5076",
    "setOwner(address)": "13af4035"
  },
  "id": 0
}