{
  "abi": [
    {
      "inputs": [
        {
          "internalType": "bytes",
          "name": "_code",
          "type": "bytes"
        },
        {
          "internalType": "bytes32",
          "name": "salt",
          "type": "bytes32"
        }
      ],
      "name": "predictAddress",
      "outputs": [
        {
          "internalType": "address",
          "name": "",
          "type": "address"
        }
      ],
      "stateMutability": "view",
      "type": "function"
    },
    {
      "inputs": [
        {
          "internalType": "bytes",
          "name": "_code",
          "type": "bytes"
        }
      ],
      "name": "read",
      "outputs": [
        {
          "internalType": "address",
          "name": "",
          "type": "address"
        }
      ],
      "stateMutability": "view",
      "type": "function"
    },
    {
      "inputs": [
        {
          "internalType": "bytes",
          "name": "_code",
          "type": "bytes"
        }
      ],
      "name": "write",
      "outputs": [
        {
          "internalType": "address",
          "name": "target",
          "type": "address"
        }
      ],
      "stateMutability": "nonpayable",
      "type": "function"
    }
  ],
  "bytecode": {
    "object": "0x608060405234801561001057600080fd5b50610387806100206000396000f3fe608060405234801561001057600080fd5b50600436106100415760003560e01c8063482f2024146100465780637ed0c3b2146100755780638bf4515c14610088575b600080fd5b6100596100543660046101ec565b61009b565b6040516001600160a01b03909116815260200160405180910390f35b61005961008336600461024e565b610115565b6100596100963660046102ff565b610168565b60008084846040516100ae929190610341565b6040519081900381206001600160f81b031960208301526bffffffffffffffffffffffff193060601b1660218301526035820185905260558201819052915060009060750160408051808303601f1901815291905280516020909101209695505050505050565b805160208201818120600092909182919084f59150813b61013557600080fd5b508151602092830120600090815291829052604090912080546001600160a01b0319166001600160a01b03831617905590565b600080838360405161017b929190610341565b60408051918290039091206000908152602081905220546001600160a01b0316949350505050565b60008083601f8401126101b557600080fd5b50813567ffffffffffffffff8111156101cd57600080fd5b6020830191508360208285010111156101e557600080fd5b9250929050565b60008060006040848603121561020157600080fd5b833567ffffffffffffffff81111561021857600080fd5b610224868287016101a3565b909790965060209590950135949350505050565b634e487b7160e01b600052604160045260246000fd5b60006020828403121561026057600080fd5b813567ffffffffffffffff8082111561027857600080fd5b818401915084601f83011261028c57600080fd5b81358181111561029e5761029e610238565b604051601f8201601f19908116603f011681019083821181831017156102c6576102c6610238565b816040528281528760208487010111156102df57600080fd5b826020860160208301376000928101602001929092525095945050505050565b6000806020838503121561031257600080fd5b823567ffffffffffffffff81111561032957600080fd5b610335858286016101a3565b90969095509350505050565b818382376000910190815291905056fea264697066735822122068668e336e7d1463c9a966c0053ba1a90c991987d56971e6c884df65b1ef82cf64736f6c63430008110033",
    "linkReferences": {}
  },
  "methodIdentifiers": {
    "predictAddress(bytes,bytes32)": "482f2024",
    "read(bytes)": "8bf4515c",
    "write(bytes)": "7ed0c3b2"
  },
  "id": 0
}