{
  "abi": [
    {
      "inputs": [
        {
          "internalType": "address",
          "name": "_resolver",
          "type": "address"
        }
      ],
      "stateMutability": "nonpayable",
      "type": "constructor"
    },
    {
      "anonymous": false,
      "inputs": [
        {
          "indexed": false,
          "internalType": "address",
          "name": "previousAdmin",
          "type": "address"
        },
        {
          "indexed": false,
          "internalType": "address",
          "name": "newAdmin",
          "type": "address"
        }
      ],
      "name": "AdminChanged",
      "type": "event"
    },
    {
      "anonymous": false,
      "inputs": [
        {
          "indexed": true,
          "internalType": "address",
          "name": "implementation",
          "type": "address"
        },
        {
          "indexed": true,
          "internalType": "uint32",
          "name": "version",
          "type": "uint32"
        }
      ],
      "name": "Upgraded",
      "type": "event"
    },
    {
      "stateMutability": "payable",
      "type": "fallback"
    },
    {
      "inputs": [
        {
          "internalType": "uint32",
          "name": "version",
          "type": "uint32"
        }
      ],
      "name": "computeNewDeploymentSalt",
      "outputs": [
        {
          "internalType": "bytes32",
          "name": "",
          "type": "bytes32"
        }
      ],
      "stateMutability": "view",
      "type": "function"
    },
    {
      "inputs": [],
      "name": "configured",
      "outputs": [
        {
          "internalType": "bool",
          "name": "",
          "type": "bool"
        }
      ],
      "stateMutability": "view",
      "type": "function"
    },
    {
      "inputs": [],
      "name": "implementation",
      "outputs": [
        {
          "internalType": "address",
          "name": "",
          "type": "address"
        }
      ],
      "stateMutability": "view",
      "type": "function"
    },
    {
      "inputs": [],
      "name": "implementationVersion",
      "outputs": [
        {
          "internalType": "uint32",
          "name": "",
          "type": "uint32"
        }
      ],
      "stateMutability": "view",
      "type": "function"
    },
    {
      "inputs": [],
      "name": "proxyAdmin",
      "outputs": [
        {
          "internalType": "address",
          "name": "",
          "type": "address"
        }
      ],
      "stateMutability": "view",
      "type": "function"
    },
    {
      "inputs": [],
      "name": "resolver",
      "outputs": [
        {
          "internalType": "address",
          "name": "",
          "type": "address"
        }
      ],
      "stateMutability": "view",
      "type": "function"
    },
    {
      "inputs": [
        {
          "internalType": "address",
          "name": "_admin",
          "type": "address"
        }
      ],
      "name": "setProxyAdmin",
      "outputs": [],
      "stateMutability": "nonpayable",
      "type": "function"
    },
    {
      "inputs": [
        {
          "internalType": "address",
          "name": "_implementation",
          "type": "address"
        },
        {
          "internalType": "uint32",
          "name": "version",
          "type": "uint32"
        }
      ],
      "name": "upgrade",
      "outputs": [],
      "stateMutability": "nonpayable",
      "type": "function"
    },
    {
      "inputs": [
        {
          "internalType": "bytes",
          "name": "_newImplementation",
          "type": "bytes"
        },
        {
          "internalType": "uint32",
          "name": "version",
          "type": "uint32"
        }
      ],
      "name": "upgrade2",
      "outputs": [],
      "stateMutability": "nonpayable",
      "type": "function"
    },
    {
      "stateMutability": "payable",
      "type": "receive"
    }
  ],
  "bytecode": {
    "object": "0x60806040526000805460ff60a01b1916905534801561001d57600080fd5b50604051610a28380380610a2883398101604081905261003c91610114565b6100453361006a565b600080546001600160a01b0319166001600160a01b0392909216919091179055610165565b7f7e644d79422f17c01e4894b5f4f588d331ebfa28653d42ae832dc59e38c9798f6100936100e0565b54604080516001600160a01b03928316815291841660208301520160405180910390a1806100bf6100e0565b80546001600160a01b0319166001600160a01b039290921691909117905550565b60008061010e60017f4c3ee7f6a2d8af71947ceff4838fdd00b02c41abff6d08e2cd4475e7186935a9610144565b92915050565b60006020828403121561012657600080fd5b81516001600160a01b038116811461013d57600080fd5b9392505050565b8181038181111561010e57634e487b7160e01b600052601160045260246000fd5b6108b4806101746000396000f3fe60806040526004361061008a5760003560e01c806344b144931161005957806344b144931461013d57806347c026611461015d5780635c60da1b1461017d5780638772a23a146101925780639b9bf2d1146101c357610099565b806304f3bcec146100a157806306bfcec6146100de5780632baa9a7d146101085780633e47158c1461012857610099565b36610099576100976101f1565b005b6100976101f1565b3480156100ad57600080fd5b506000546100c1906001600160a01b031681565b6040516001600160a01b0390911681526020015b60405180910390f35b3480156100ea57600080fd5b506100f361022e565b60405163ffffffff90911681526020016100d5565b34801561011457600080fd5b50610097610123366004610725565b61024e565b34801561013457600080fd5b506100c161033a565b34801561014957600080fd5b5061009761015836600461076e565b610353565b34801561016957600080fd5b50610097610178366004610827565b610473565b34801561018957600080fd5b506100c16104d2565b34801561019e57600080fd5b506000546101b390600160a01b900460ff1681565b60405190151581526020016100d5565b3480156101cf57600080fd5b506101e36101de366004610842565b6104ee565b6040519081526020016100d5565b60006101fb610540565b600101546001600160a01b031690503660008037600080366000845af43d6000803e808015610229573d6000f35b3d6000fd5b6000610238610540565b60010154600160a01b900463ffffffff16919050565b610256610540565b546001600160a01b031633146102a65760405162461bcd60e51b815260206004820152601060248201526f11549497d5539055551213d49254d15160821b60448201526064015b60405180910390fd5b60405163ffffffff8216906001600160a01b038416907fe523aaf37c3bbc80e5b1b689a889eb8bed383aeb61b68175b18c4d6ba05576e190600090a3816102eb610540565b60010180546001600160a01b0319166001600160a01b039290921691909117905580610315610540565b60010160146101000a81548163ffffffff021916908363ffffffff1602179055505050565b6000610344610540565b546001600160a01b0316919050565b60006103696000610363846104ee565b85610574565b600054909150600160a01b900460ff166103e357600054604051633189666560e11b81523060048201526001600160a01b03918216602482015290821690636312ccca90604401600060405180830381600087803b1580156103ca57600080fd5b505af11580156103de573d6000803e3d6000fd5b505050505b806103ec610540565b60010180546001600160a01b0319166001600160a01b039290921691909117905581610416610540565b600101805463ffffffff60a01b1916600160a01b63ffffffff93841602179055604051908316906001600160a01b038316907fe523aaf37c3bbc80e5b1b689a889eb8bed383aeb61b68175b18c4d6ba05576e190600090a3505050565b61047b610540565b546001600160a01b031633146104c65760405162461bcd60e51b815260206004820152601060248201526f11549497d5539055551213d49254d15160821b604482015260640161029d565b6104cf8161067f565b50565b60006104dc610540565b600101546001600160a01b0316919050565b6040516bffffffffffffffffffffffff193060601b1660208201526001600160e01b031960e083901b166034820152600090603801604051602081830303815290604052805190602001209050919050565b60008061056e60017f4c3ee7f6a2d8af71947ceff4838fdd00b02c41abff6d08e2cd4475e7186935a961085d565b92915050565b6000834710156105c65760405162461bcd60e51b815260206004820152601d60248201527f437265617465323a20696e73756666696369656e742062616c616e6365000000604482015260640161029d565b81516000036106175760405162461bcd60e51b815260206004820181905260248201527f437265617465323a2062797465636f6465206c656e677468206973207a65726f604482015260640161029d565b8282516020840186f590506001600160a01b0381166106785760405162461bcd60e51b815260206004820152601960248201527f437265617465323a204661696c6564206f6e206465706c6f7900000000000000604482015260640161029d565b9392505050565b7f7e644d79422f17c01e4894b5f4f588d331ebfa28653d42ae832dc59e38c9798f6106a8610540565b54604080516001600160a01b03928316815291841660208301520160405180910390a1806106d4610540565b80546001600160a01b0319166001600160a01b039290921691909117905550565b80356001600160a01b038116811461070c57600080fd5b919050565b803563ffffffff8116811461070c57600080fd5b6000806040838503121561073857600080fd5b610741836106f5565b915061074f60208401610711565b90509250929050565b634e487b7160e01b600052604160045260246000fd5b6000806040838503121561078157600080fd5b823567ffffffffffffffff8082111561079957600080fd5b818501915085601f8301126107ad57600080fd5b8135818111156107bf576107bf610758565b604051601f8201601f19908116603f011681019083821181831017156107e7576107e7610758565b8160405282815288602084870101111561080057600080fd5b82602086016020830137600060208483010152809650505050505061074f60208401610711565b60006020828403121561083957600080fd5b610678826106f5565b60006020828403121561085457600080fd5b61067882610711565b8181038181111561056e57634e487b7160e01b600052601160045260246000fdfea2646970667358221220756c6f2fbc7c972eaa44cddc47203ef15960cba4b7b2451a8a4b48282e0b9b3d64736f6c63430008110033",
    "linkReferences": {}
  },
  "methodIdentifiers": {
    "computeNewDeploymentSalt(uint32)": "9b9bf2d1",
    "configured()": "8772a23a",
    "implementation()": "5c60da1b",
    "implementationVersion()": "06bfcec6",
    "proxyAdmin()": "3e47158c",
    "resolver()": "04f3bcec",
    "setProxyAdmin(address)": "47c02661",
    "upgrade(address,uint32)": "2baa9a7d",
    "upgrade2(bytes,uint32)": "44b14493"
  },
  "id": 0
}