{
  "abi": [
    {
      "inputs": [
        {
          "internalType": "address",
          "name": "_addressProvider",
          "type": "address"
        }
      ],
      "stateMutability": "nonpayable",
      "type": "constructor"
    },
    {
      "anonymous": false,
      "inputs": [
        {
          "indexed": false,
          "internalType": "address",
          "name": "previousAdmin",
          "type": "address"
        },
        {
          "indexed": false,
          "internalType": "address",
          "name": "newAdmin",
          "type": "address"
        }
      ],
      "name": "AdminChanged",
      "type": "event"
    },
    {
      "anonymous": false,
      "inputs": [
        {
          "indexed": true,
          "internalType": "address",
          "name": "implementation",
          "type": "address"
        },
        {
          "indexed": true,
          "internalType": "uint32",
          "name": "version",
          "type": "uint32"
        }
      ],
      "name": "Upgraded",
      "type": "event"
    },
    {
      "stateMutability": "payable",
      "type": "fallback"
    },
    {
      "inputs": [
        {
          "internalType": "uint32",
          "name": "version",
          "type": "uint32"
        }
      ],
      "name": "_computeNewDeploymentSalt",
      "outputs": [
        {
          "internalType": "bytes32",
          "name": "",
          "type": "bytes32"
        }
      ],
      "stateMutability": "view",
      "type": "function"
    },
    {
      "inputs": [
        {
          "internalType": "address",
          "name": "_admin",
          "type": "address"
        }
      ],
      "name": "setProxyAdmin",
      "outputs": [],
      "stateMutability": "nonpayable",
      "type": "function"
    },
    {
      "inputs": [
        {
          "internalType": "bytes",
          "name": "_newImplementation",
          "type": "bytes"
        },
        {
          "internalType": "uint32",
          "name": "version",
          "type": "uint32"
        }
      ],
      "name": "upgradeImplementation",
      "outputs": [
        {
          "internalType": "address",
          "name": "instance",
          "type": "address"
        }
      ],
      "stateMutability": "nonpayable",
      "type": "function"
    },
    {
      "stateMutability": "payable",
      "type": "receive"
    }
  ],
  "bytecode": {
    "object": "0x608060405234801561001057600080fd5b506040516107d23803806107d283398101604081905261002f9161019c565b610038336100c4565b600061004261013a565b60010180546001600160a01b0319166001600160a01b0392909216919091179055600061006d61013a565b600101805465ffffffffffff92909216600160a01b0265ffffffffffff60a01b19909216919091179055806100a061016e565b80546001600160a01b0319166001600160a01b0392909216919091179055506101ed565b7f7e644d79422f17c01e4894b5f4f588d331ebfa28653d42ae832dc59e38c9798f6100ed61013a565b54604080516001600160a01b03928316815291841660208301520160405180910390a18061011961013a565b80546001600160a01b0319166001600160a01b039290921691909117905550565b60008061016860017f607ffeae841ef3a49380ee0034eac83f5ee223d543fba4bbe6afb82c569657c66101cc565b92915050565b60008061016860017fb5e75f33363faba579acfe081959ecc5e5146fdb7f8fdd04645b64e0213ce4036101cc565b6000602082840312156101ae57600080fd5b81516001600160a01b03811681146101c557600080fd5b9392505050565b8181038181111561016857634e487b7160e01b600052601160045260246000fd5b6105d6806101fc6000396000f3fe6080604052600436106100385760003560e01c806347c026611461004f578063bcfc8f601461006f578063c9efc10b146100ac57610047565b36610047576100456100da565b005b6100456100da565b34801561005b57600080fd5b5061004561006a366004610443565b610117565b34801561007b57600080fd5b5061008f61008a3660046104a2565b61012b565b6040516001600160a01b0390911681526020015b60405180910390f35b3480156100b857600080fd5b506100cc6100c7366004610564565b6101f0565b6040519081526020016100a3565b60006100e4610242565b600101546001600160a01b031690503660008037600080366000845af43d6000803e808015610112573d6000f35b3d6000fd5b61011f610276565b610128816102f9565b50565b6000610135610276565b6101496000610143846101f0565b8561036f565b905080610154610242565b60010180546001600160a01b0319166001600160a01b039290921691909117905563ffffffff8216610184610242565b600101805465ffffffffffff92909216600160a01b0265ffffffffffff60a01b1990921691909117905560405163ffffffff8316906001600160a01b038316907fe523aaf37c3bbc80e5b1b689a889eb8bed383aeb61b68175b18c4d6ba05576e190600090a392915050565b6040516bffffffffffffffffffffffff193060601b1660208201526001600160e01b031960e083901b166034820152600090603801604051602081830303815290604052805190602001209050919050565b60008061027060017f607ffeae841ef3a49380ee0034eac83f5ee223d543fba4bbe6afb82c569657c661057f565b92915050565b61027e610242565b546001600160a01b031633146102f75760405162461bcd60e51b815260206004820152603360248201527f6e696163696e3a206f6e6c7920636f6e74726163742061646d696e206d6179206044820152723832b93337b936903a3434b99030b1ba34b7b760691b60648201526084015b60405180910390fd5b565b7f7e644d79422f17c01e4894b5f4f588d331ebfa28653d42ae832dc59e38c9798f610322610242565b54604080516001600160a01b03928316815291841660208301520160405180910390a18061034e610242565b80546001600160a01b0319166001600160a01b039290921691909117905550565b6000834710156103c15760405162461bcd60e51b815260206004820152601d60248201527f437265617465323a20696e73756666696369656e742062616c616e636500000060448201526064016102ee565b81516000036104125760405162461bcd60e51b815260206004820181905260248201527f437265617465323a2062797465636f6465206c656e677468206973207a65726f60448201526064016102ee565b6040518383516020850187f591508161043b573d806000833e8015610435578082fd5b50602081fd5b509392505050565b60006020828403121561045557600080fd5b81356001600160a01b038116811461046c57600080fd5b9392505050565b634e487b7160e01b600052604160045260246000fd5b803563ffffffff8116811461049d57600080fd5b919050565b600080604083850312156104b557600080fd5b823567ffffffffffffffff808211156104cd57600080fd5b818501915085601f8301126104e157600080fd5b8135818111156104f3576104f3610473565b604051601f8201601f19908116603f0116810190838211818310171561051b5761051b610473565b8160405282815288602084870101111561053457600080fd5b82602086016020830137600060208483010152809650505050505061055b60208401610489565b90509250929050565b60006020828403121561057657600080fd5b61046c82610489565b8181038181111561027057634e487b7160e01b600052601160045260246000fdfea2646970667358221220f106512b3864648f888b0ee7865c7bad92d27734227900248a3be0c44fd12fa464736f6c63430008110033",
    "linkReferences": {}
  },
  "methodIdentifiers": {
    "_computeNewDeploymentSalt(uint32)": "c9efc10b",
    "setProxyAdmin(address)": "47c02661",
    "upgradeImplementation(bytes,uint32)": "bcfc8f60"
  },
  "id": 0
}