{
  "abi": [
    {
      "inputs": [
        {
          "internalType": "address",
          "name": "_resolver",
          "type": "address"
        }
      ],
      "stateMutability": "nonpayable",
      "type": "constructor"
    },
    {
      "anonymous": false,
      "inputs": [
        {
          "indexed": false,
          "internalType": "address",
          "name": "previousAdmin",
          "type": "address"
        },
        {
          "indexed": false,
          "internalType": "address",
          "name": "newAdmin",
          "type": "address"
        }
      ],
      "name": "AdminChanged",
      "type": "event"
    },
    {
      "anonymous": false,
      "inputs": [
        {
          "indexed": false,
          "internalType": "bytes32",
          "name": "name",
          "type": "bytes32"
        },
        {
          "indexed": false,
          "internalType": "address",
          "name": "destination",
          "type": "address"
        }
      ],
      "name": "CacheUpdated",
      "type": "event"
    },
    {
      "anonymous": false,
      "inputs": [
        {
          "indexed": true,
          "internalType": "address",
          "name": "implementation",
          "type": "address"
        }
      ],
      "name": "Upgraded",
      "type": "event"
    },
    {
      "stateMutability": "payable",
      "type": "fallback"
    },
    {
      "inputs": [],
      "name": "implementation",
      "outputs": [
        {
          "internalType": "address",
          "name": "",
          "type": "address"
        }
      ],
      "stateMutability": "view",
      "type": "function"
    },
    {
      "inputs": [],
      "name": "isResolverCached",
      "outputs": [
        {
          "internalType": "bool",
          "name": "",
          "type": "bool"
        }
      ],
      "stateMutability": "view",
      "type": "function"
    },
    {
      "inputs": [],
      "name": "proxyAdmin",
      "outputs": [
        {
          "internalType": "address",
          "name": "",
          "type": "address"
        }
      ],
      "stateMutability": "view",
      "type": "function"
    },
    {
      "inputs": [],
      "name": "rebuildCache",
      "outputs": [],
      "stateMutability": "nonpayable",
      "type": "function"
    },
    {
      "inputs": [],
      "name": "resolver",
      "outputs": [
        {
          "internalType": "contract AddressResolver",
          "name": "",
          "type": "address"
        }
      ],
      "stateMutability": "view",
      "type": "function"
    },
    {
      "inputs": [],
      "name": "resolverAddressesRequired",
      "outputs": [
        {
          "internalType": "bytes32[]",
          "name": "addresses",
          "type": "bytes32[]"
        }
      ],
      "stateMutability": "pure",
      "type": "function"
    },
    {
      "inputs": [
        {
          "internalType": "address",
          "name": "_admin",
          "type": "address"
        }
      ],
      "name": "setProxyAdmin",
      "outputs": [],
      "stateMutability": "nonpayable",
      "type": "function"
    },
    {
      "inputs": [
        {
          "internalType": "address",
          "name": "_implementation",
          "type": "address"
        }
      ],
      "name": "upgrade",
      "outputs": [],
      "stateMutability": "nonpayable",
      "type": "function"
    },
    {
      "stateMutability": "payable",
      "type": "receive"
    }
  ],
  "bytecode": {
    "object": "0x608060405234801561001057600080fd5b5060405161095638038061095683398101604081905261002f91610103565b600080546001600160a01b0319166001600160a01b03831617905561005333610059565b50610154565b7f7e644d79422f17c01e4894b5f4f588d331ebfa28653d42ae832dc59e38c9798f6100826100cf565b54604080516001600160a01b03928316815291841660208301520160405180910390a1806100ae6100cf565b80546001600160a01b0319166001600160a01b039290921691909117905550565b6000806100fd60017f4c3ee7f6a2d8af71947ceff4838fdd00b02c41abff6d08e2cd4475e7186935a9610133565b92915050565b60006020828403121561011557600080fd5b81516001600160a01b038116811461012c57600080fd5b9392505050565b818103818111156100fd57634e487b7160e01b600052601160045260246000fd5b6107f3806101636000396000f3fe60806040526004361061007f5760003560e01c806347c026611161004e57806347c026611461012d5780635c60da1b1461014d5780637418536014610162578063899ffef4146101775761008e565b806304f3bcec146100965780630900f010146100d35780632af64bd3146100f35780633e47158c146101185761008e565b3661008e5761008c61019d565b005b61008c61019d565b3480156100a257600080fd5b506000546100b6906001600160a01b031681565b6040516001600160a01b0390911681526020015b60405180910390f35b3480156100df57600080fd5b5061008c6100ee36600461068a565b6101db565b3480156100ff57600080fd5b50610108610294565b60405190151581526020016100ca565b34801561012457600080fd5b506100b66103b0565b34801561013957600080fd5b5061008c61014836600461068a565b6103c9565b34801561015957600080fd5b506100b6610428565b34801561016e57600080fd5b5061008c610444565b34801561018357600080fd5b50604080516000815260208101918290526100ca916106ae565b60006101a76105cb565b600101546001600160a01b031690503660008037600080368184600019f43d6000803e8080156101d6573d6000f35b3d6000fd5b6101e36105cb565b546001600160a01b031633146102335760405162461bcd60e51b815260206004820152601060248201526f11549497d5539055551213d49254d15160821b60448201526064015b60405180910390fd5b6040516001600160a01b038216907fbc7cd75a20ee27fd9adebab32041f755214dbc6bffa90cc0225b39da2e5c2d3b90600090a2806102706105cb565b60010180546001600160a01b0319166001600160a01b039290921691909117905550565b6000806102ac60408051600081526020810190915290565b905060005b81518110156103a75760008282815181106102ce576102ce6106f2565b60209081029190910181015160008181526001909252604080832054925490516321f8a72160e01b8152600481018390529193506001600160a01b039283169216906321f8a72190602401602060405180830381865afa158015610336573d6000803e3d6000fd5b505050506040513d601f19601f8201168201806040525081019061035a9190610708565b6001600160a01b031614158061038557506000818152600160205260409020546001600160a01b0316155b15610394576000935050505090565b508061039f8161073b565b9150506102b1565b50600191505090565b60006103ba6105cb565b546001600160a01b0316919050565b6103d16105cb565b546001600160a01b0316331461041c5760405162461bcd60e51b815260206004820152601060248201526f11549497d5539055551213d49254d15160821b604482015260640161022a565b610425816105ff565b50565b60006104326105cb565b600101546001600160a01b0316919050565b60408051600080825260208201909252905b81518110156105c7576000828281518110610473576104736106f2565b6020026020010151905060008060009054906101000a90046001600160a01b03166001600160a01b031663dacb2d0183846040516020016104e091907f5265736f6c766572206d697373696e67207461726765743a20000000000000008152601981019190915260390190565b6040516020818303038152906040526040518363ffffffff1660e01b815260040161050c929190610754565b602060405180830381865afa158015610529573d6000803e3d6000fd5b505050506040513d601f19601f8201168201806040525081019061054d9190610708565b60008381526001602090815260409182902080546001600160a01b0319166001600160a01b0385169081179091558251868152918201529192507f88a93678a3692f6789d9546fc621bf7234b101ddb7d4fe479455112831b8aa68910160405180910390a1505080806105bf9061073b565b915050610456565b5050565b6000806105f960017f4c3ee7f6a2d8af71947ceff4838fdd00b02c41abff6d08e2cd4475e7186935a96107aa565b92915050565b7f7e644d79422f17c01e4894b5f4f588d331ebfa28653d42ae832dc59e38c9798f6106286105cb565b54604080516001600160a01b03928316815291841660208301520160405180910390a1806106546105cb565b80546001600160a01b0319166001600160a01b039290921691909117905550565b6001600160a01b038116811461042557600080fd5b60006020828403121561069c57600080fd5b81356106a781610675565b9392505050565b6020808252825182820181905260009190848201906040850190845b818110156106e6578351835292840192918401916001016106ca565b50909695505050505050565b634e487b7160e01b600052603260045260246000fd5b60006020828403121561071a57600080fd5b81516106a781610675565b634e487b7160e01b600052601160045260246000fd5b60006001820161074d5761074d610725565b5060010190565b82815260006020604081840152835180604085015260005b818110156107885785810183015185820160600152820161076c565b506000606082860101526060601f19601f830116850101925050509392505050565b818103818111156105f9576105f961072556fea264697066735822122095230233d611cb4eab09ed16384c694f7832b835c647116b2814dde715c208e664736f6c63430008110033",
    "linkReferences": {}
  },
  "methodIdentifiers": {
    "implementation()": "5c60da1b",
    "isResolverCached()": "2af64bd3",
    "proxyAdmin()": "3e47158c",
    "rebuildCache()": "74185360",
    "resolver()": "04f3bcec",
    "resolverAddressesRequired()": "899ffef4",
    "setProxyAdmin(address)": "47c02661",
    "upgrade(address)": "0900f010"
  },
  "id": 1
}