{
  "abi": [
    {
      "inputs": [
        {
          "internalType": "address",
          "name": "_addressProvider",
          "type": "address"
        }
      ],
      "stateMutability": "nonpayable",
      "type": "constructor"
    },
    {
      "anonymous": false,
      "inputs": [
        {
          "indexed": false,
          "internalType": "address",
          "name": "previousAdmin",
          "type": "address"
        },
        {
          "indexed": false,
          "internalType": "address",
          "name": "newAdmin",
          "type": "address"
        }
      ],
      "name": "AdminChanged",
      "type": "event"
    },
    {
      "anonymous": false,
      "inputs": [
        {
          "indexed": true,
          "internalType": "address",
          "name": "implementation",
          "type": "address"
        },
        {
          "indexed": true,
          "internalType": "uint32",
          "name": "version",
          "type": "uint32"
        }
      ],
      "name": "Upgraded",
      "type": "event"
    },
    {
      "stateMutability": "payable",
      "type": "fallback"
    },
    {
      "inputs": [
        {
          "internalType": "uint32",
          "name": "version",
          "type": "uint32"
        }
      ],
      "name": "_computeNewDeploymentSalt",
      "outputs": [
        {
          "internalType": "bytes32",
          "name": "",
          "type": "bytes32"
        }
      ],
      "stateMutability": "view",
      "type": "function"
    },
    {
      "inputs": [
        {
          "internalType": "address",
          "name": "_admin",
          "type": "address"
        }
      ],
      "name": "setProxyAdmin",
      "outputs": [],
      "stateMutability": "nonpayable",
      "type": "function"
    },
    {
      "inputs": [
        {
          "internalType": "bytes",
          "name": "_newImplementation",
          "type": "bytes"
        },
        {
          "internalType": "uint32",
          "name": "version",
          "type": "uint32"
        }
      ],
      "name": "upgradeImplementation",
      "outputs": [],
      "stateMutability": "nonpayable",
      "type": "function"
    },
    {
      "stateMutability": "payable",
      "type": "receive"
    }
  ],
  "bytecode": {
    "object": "0x608060405234801561001057600080fd5b506040516107b43803806107b483398101604081905261002f9161019c565b610038336100c4565b600061004261013a565b60010180546001600160a01b0319166001600160a01b0392909216919091179055600061006d61013a565b600101805465ffffffffffff92909216600160a01b0265ffffffffffff60a01b19909216919091179055806100a061016e565b80546001600160a01b0319166001600160a01b0392909216919091179055506101ed565b7f7e644d79422f17c01e4894b5f4f588d331ebfa28653d42ae832dc59e38c9798f6100ed61013a565b54604080516001600160a01b03928316815291841660208301520160405180910390a18061011961013a565b80546001600160a01b0319166001600160a01b039290921691909117905550565b60008061016860017f607ffeae841ef3a49380ee0034eac83f5ee223d543fba4bbe6afb82c569657c66101cc565b92915050565b60008061016860017fb5e75f33363faba579acfe081959ecc5e5146fdb7f8fdd04645b64e0213ce4036101cc565b6000602082840312156101ae57600080fd5b81516001600160a01b03811681146101c557600080fd5b9392505050565b8181038181111561016857634e487b7160e01b600052601160045260246000fd5b6105b8806101fc6000396000f3fe6080604052600436106100385760003560e01c806347c026611461004f578063bcfc8f601461006f578063c9efc10b1461008f57610047565b36610047576100456100c1565b005b6100456100c1565b34801561005b57600080fd5b5061004561006a366004610425565b6100fe565b34801561007b57600080fd5b5061004561008a366004610484565b610112565b34801561009b57600080fd5b506100af6100aa366004610546565b6101d6565b60405190815260200160405180910390f35b60006100cb610228565b600101546001600160a01b031690503660008037600080366000845af43d6000803e8080156100f9573d6000f35b3d6000fd5b61010661025c565b61010f816102db565b50565b61011a61025c565b6000610130600061012a846101d6565b85610351565b90508061013b610228565b60010180546001600160a01b0319166001600160a01b039290921691909117905563ffffffff821661016b610228565b600101805465ffffffffffff92909216600160a01b0265ffffffffffff60a01b1990921691909117905560405163ffffffff8316906001600160a01b038316907fe523aaf37c3bbc80e5b1b689a889eb8bed383aeb61b68175b18c4d6ba05576e190600090a3505050565b6040516bffffffffffffffffffffffff193060601b1660208201526001600160e01b031960e083901b166034820152600090603801604051602081830303815290604052805190602001209050919050565b60008061025660017f607ffeae841ef3a49380ee0034eac83f5ee223d543fba4bbe6afb82c569657c6610561565b92915050565b610264610228565b546001600160a01b031633146102d95760405162461bcd60e51b815260206004820152602f60248201527f4f6e6c792074686520636f6e74726163742061646d696e206d6179207065726660448201526e37b936903a3434b99030b1ba34b7b760891b60648201526084015b60405180910390fd5b565b7f7e644d79422f17c01e4894b5f4f588d331ebfa28653d42ae832dc59e38c9798f610304610228565b54604080516001600160a01b03928316815291841660208301520160405180910390a180610330610228565b80546001600160a01b0319166001600160a01b039290921691909117905550565b6000834710156103a35760405162461bcd60e51b815260206004820152601d60248201527f437265617465323a20696e73756666696369656e742062616c616e636500000060448201526064016102d0565b81516000036103f45760405162461bcd60e51b815260206004820181905260248201527f437265617465323a2062797465636f6465206c656e677468206973207a65726f60448201526064016102d0565b6040518383516020850187f591508161041d573d806000833e8015610417578082fd5b50602081fd5b509392505050565b60006020828403121561043757600080fd5b81356001600160a01b038116811461044e57600080fd5b9392505050565b634e487b7160e01b600052604160045260246000fd5b803563ffffffff8116811461047f57600080fd5b919050565b6000806040838503121561049757600080fd5b823567ffffffffffffffff808211156104af57600080fd5b818501915085601f8301126104c357600080fd5b8135818111156104d5576104d5610455565b604051601f8201601f19908116603f011681019083821181831017156104fd576104fd610455565b8160405282815288602084870101111561051657600080fd5b82602086016020830137600060208483010152809650505050505061053d6020840161046b565b90509250929050565b60006020828403121561055857600080fd5b61044e8261046b565b8181038181111561025657634e487b7160e01b600052601160045260246000fdfea264697066735822122021bf633e2b61da3f2ed4b5833a7ac185f47899f82d1049bbd29f13fd37471f1c64736f6c63430008110033",
    "linkReferences": {}
  },
  "methodIdentifiers": {
    "_computeNewDeploymentSalt(uint32)": "c9efc10b",
    "setProxyAdmin(address)": "47c02661",
    "upgradeImplementation(bytes,uint32)": "bcfc8f60"
  },
  "id": 0
}