{
  "abi": [
    {
      "inputs": [
        {
          "internalType": "address",
          "name": "_resolver",
          "type": "address"
        }
      ],
      "stateMutability": "nonpayable",
      "type": "constructor"
    },
    {
      "anonymous": false,
      "inputs": [
        {
          "indexed": false,
          "internalType": "address",
          "name": "previousAdmin",
          "type": "address"
        },
        {
          "indexed": false,
          "internalType": "address",
          "name": "newAdmin",
          "type": "address"
        }
      ],
      "name": "AdminChanged",
      "type": "event"
    },
    {
      "anonymous": false,
      "inputs": [
        {
          "indexed": true,
          "internalType": "address",
          "name": "implementation",
          "type": "address"
        },
        {
          "indexed": true,
          "internalType": "uint32",
          "name": "version",
          "type": "uint32"
        }
      ],
      "name": "Upgraded",
      "type": "event"
    },
    {
      "stateMutability": "payable",
      "type": "fallback"
    },
    {
      "inputs": [
        {
          "internalType": "uint32",
          "name": "version",
          "type": "uint32"
        }
      ],
      "name": "computeNewDeploymentSalt",
      "outputs": [
        {
          "internalType": "bytes32",
          "name": "",
          "type": "bytes32"
        }
      ],
      "stateMutability": "view",
      "type": "function"
    },
    {
      "inputs": [],
      "name": "implementation",
      "outputs": [
        {
          "internalType": "address",
          "name": "",
          "type": "address"
        }
      ],
      "stateMutability": "view",
      "type": "function"
    },
    {
      "inputs": [],
      "name": "implementationVersion",
      "outputs": [
        {
          "internalType": "uint32",
          "name": "",
          "type": "uint32"
        }
      ],
      "stateMutability": "view",
      "type": "function"
    },
    {
      "inputs": [],
      "name": "proxyAdmin",
      "outputs": [
        {
          "internalType": "address",
          "name": "",
          "type": "address"
        }
      ],
      "stateMutability": "view",
      "type": "function"
    },
    {
      "inputs": [
        {
          "internalType": "address",
          "name": "_admin",
          "type": "address"
        }
      ],
      "name": "setProxyAdmin",
      "outputs": [],
      "stateMutability": "nonpayable",
      "type": "function"
    },
    {
      "inputs": [
        {
          "internalType": "bytes",
          "name": "_newImplementation",
          "type": "bytes"
        },
        {
          "internalType": "uint32",
          "name": "version",
          "type": "uint32"
        }
      ],
      "name": "upgrade",
      "outputs": [],
      "stateMutability": "nonpayable",
      "type": "function"
    },
    {
      "stateMutability": "payable",
      "type": "receive"
    }
  ],
  "bytecode": {
    "object": "0x608060405234801561001057600080fd5b5060405161098438038061098483398101604081905261002f9161013c565b61003833610092565b80610041610108565b60020180546001600160a01b0319166001600160a01b03929092169190911790553061006b610108565b60030180546001600160a01b0319166001600160a01b03929092169190911790555061018d565b7f7e644d79422f17c01e4894b5f4f588d331ebfa28653d42ae832dc59e38c9798f6100bb610108565b54604080516001600160a01b03928316815291841660208301520160405180910390a1806100e7610108565b80546001600160a01b0319166001600160a01b039290921691909117905550565b60008061013660017f4c3ee7f6a2d8af71947ceff4838fdd00b02c41abff6d08e2cd4475e7186935a961016c565b92915050565b60006020828403121561014e57600080fd5b81516001600160a01b038116811461016557600080fd5b9392505050565b8181038181111561013657634e487b7160e01b600052601160045260246000fd5b6107e88061019c6000396000f3fe6080604052600436106100595760003560e01c806306bfcec614610070578063362d79e11461009f5780633e47158c146100bf57806347c02661146100ec5780635c60da1b1461010c5780639b9bf2d11461012157610068565b366100685761006661014f565b005b61006661014f565b34801561007c57600080fd5b5061008561018c565b60405163ffffffff90911681526020015b60405180910390f35b3480156100ab57600080fd5b506100666100ba36600461068b565b6101ac565b3480156100cb57600080fd5b506100d46103c1565b6040516001600160a01b039091168152602001610096565b3480156100f857600080fd5b5061006661010736600461074d565b6103da565b34801561011857600080fd5b506100d4610439565b34801561012d57600080fd5b5061014161013c366004610776565b610455565b604051908152602001610096565b60006101596104a7565b600101546001600160a01b031690503660008037600080366000845af43d6000803e808015610187573d6000f35b3d6000fd5b60006101966104a7565b60010154600160a01b900463ffffffff16919050565b6101b46104a7565b546001600160a01b031633146102045760405162461bcd60e51b815260206004820152601060248201526f11549497d5539055551213d49254d15160821b60448201526064015b60405180910390fd5b600061021a600061021484610455565b856104db565b9050806001600160a01b0316636312ccca306102346104a7565b6002015460405160e084901b6001600160e01b03191681526001600160a01b03928316600482015291166024820152604401600060405180830381600087803b15801561028057600080fd5b505af1158015610294573d6000803e3d6000fd5b5050505060006001600160a01b03166102ab6104a7565b600301546001600160a01b0316036103315730636312ccca816102cc6104a7565b6002015460405160e084901b6001600160e01b03191681526001600160a01b03928316600482015291166024820152604401600060405180830381600087803b15801561031857600080fd5b505af115801561032c573d6000803e3d6000fd5b505050505b8061033a6104a7565b60010180546001600160a01b0319166001600160a01b0392909216919091179055816103646104a7565b600101805463ffffffff60a01b1916600160a01b63ffffffff93841602179055604051908316906001600160a01b038316907fe523aaf37c3bbc80e5b1b689a889eb8bed383aeb61b68175b18c4d6ba05576e190600090a3505050565b60006103cb6104a7565b546001600160a01b0316919050565b6103e26104a7565b546001600160a01b0316331461042d5760405162461bcd60e51b815260206004820152601060248201526f11549497d5539055551213d49254d15160821b60448201526064016101fb565b610436816105e6565b50565b60006104436104a7565b600101546001600160a01b0316919050565b6040516bffffffffffffffffffffffff193060601b1660208201526001600160e01b031960e083901b166034820152600090603801604051602081830303815290604052805190602001209050919050565b6000806104d560017f4c3ee7f6a2d8af71947ceff4838fdd00b02c41abff6d08e2cd4475e7186935a9610791565b92915050565b60008347101561052d5760405162461bcd60e51b815260206004820152601d60248201527f437265617465323a20696e73756666696369656e742062616c616e636500000060448201526064016101fb565b815160000361057e5760405162461bcd60e51b815260206004820181905260248201527f437265617465323a2062797465636f6465206c656e677468206973207a65726f60448201526064016101fb565b8282516020840186f590506001600160a01b0381166105df5760405162461bcd60e51b815260206004820152601960248201527f437265617465323a204661696c6564206f6e206465706c6f790000000000000060448201526064016101fb565b9392505050565b7f7e644d79422f17c01e4894b5f4f588d331ebfa28653d42ae832dc59e38c9798f61060f6104a7565b54604080516001600160a01b03928316815291841660208301520160405180910390a18061063b6104a7565b80546001600160a01b0319166001600160a01b039290921691909117905550565b634e487b7160e01b600052604160045260246000fd5b803563ffffffff8116811461068657600080fd5b919050565b6000806040838503121561069e57600080fd5b823567ffffffffffffffff808211156106b657600080fd5b818501915085601f8301126106ca57600080fd5b8135818111156106dc576106dc61065c565b604051601f8201601f19908116603f011681019083821181831017156107045761070461065c565b8160405282815288602084870101111561071d57600080fd5b82602086016020830137600060208483010152809650505050505061074460208401610672565b90509250929050565b60006020828403121561075f57600080fd5b81356001600160a01b03811681146105df57600080fd5b60006020828403121561078857600080fd5b6105df82610672565b818103818111156104d557634e487b7160e01b600052601160045260246000fdfea2646970667358221220f2402ebb075b895f9d217d792947eb0ae1672f8bd390d1dcd32f9debf03205aa64736f6c63430008110033",
    "linkReferences": {}
  },
  "methodIdentifiers": {
    "computeNewDeploymentSalt(uint32)": "9b9bf2d1",
    "implementation()": "5c60da1b",
    "implementationVersion()": "06bfcec6",
    "proxyAdmin()": "3e47158c",
    "setProxyAdmin(address)": "47c02661",
    "upgrade(bytes,uint32)": "362d79e1"
  },
  "id": 1
}