{
  "abi": [
    {
      "inputs": [],
      "stateMutability": "nonpayable",
      "type": "constructor"
    },
    {
      "anonymous": false,
      "inputs": [
        {
          "indexed": false,
          "internalType": "address",
          "name": "previousAdmin",
          "type": "address"
        },
        {
          "indexed": false,
          "internalType": "address",
          "name": "newAdmin",
          "type": "address"
        }
      ],
      "name": "AdminChanged",
      "type": "event"
    },
    {
      "anonymous": false,
      "inputs": [
        {
          "indexed": true,
          "internalType": "address",
          "name": "implementation",
          "type": "address"
        },
        {
          "indexed": true,
          "internalType": "uint32",
          "name": "version",
          "type": "uint32"
        }
      ],
      "name": "Upgraded",
      "type": "event"
    },
    {
      "stateMutability": "payable",
      "type": "fallback"
    },
    {
      "inputs": [],
      "name": "implementation",
      "outputs": [
        {
          "internalType": "address",
          "name": "",
          "type": "address"
        }
      ],
      "stateMutability": "view",
      "type": "function"
    },
    {
      "inputs": [],
      "name": "implementationVersion",
      "outputs": [
        {
          "internalType": "uint32",
          "name": "",
          "type": "uint32"
        }
      ],
      "stateMutability": "view",
      "type": "function"
    },
    {
      "inputs": [],
      "name": "proxyAdmin",
      "outputs": [
        {
          "internalType": "address",
          "name": "",
          "type": "address"
        }
      ],
      "stateMutability": "view",
      "type": "function"
    },
    {
      "inputs": [
        {
          "internalType": "address",
          "name": "_admin",
          "type": "address"
        }
      ],
      "name": "setProxyAdmin",
      "outputs": [],
      "stateMutability": "nonpayable",
      "type": "function"
    },
    {
      "inputs": [
        {
          "internalType": "address",
          "name": "_implementation",
          "type": "address"
        },
        {
          "internalType": "uint32",
          "name": "version",
          "type": "uint32"
        }
      ],
      "name": "upgrade",
      "outputs": [],
      "stateMutability": "nonpayable",
      "type": "function"
    },
    {
      "stateMutability": "payable",
      "type": "receive"
    }
  ],
  "bytecode": {
    "object": "0x608060405234801561001057600080fd5b5061001a3361001f565b6100ea565b7f7e644d79422f17c01e4894b5f4f588d331ebfa28653d42ae832dc59e38c9798f610048610095565b54604080516001600160a01b03928316815291841660208301520160405180910390a180610074610095565b80546001600160a01b0319166001600160a01b039290921691909117905550565b6000806100c360017f4c3ee7f6a2d8af71947ceff4838fdd00b02c41abff6d08e2cd4475e7186935a96100c9565b92915050565b818103818111156100c357634e487b7160e01b600052601160045260246000fd5b610436806100f96000396000f3fe60806040526004361061004e5760003560e01c806306bfcec6146100655780632baa9a7d146100945780633e47158c146100b457806347c02661146100e15780635c60da1b146101015761005d565b3661005d5761005b610116565b005b61005b610116565b34801561007157600080fd5b5061007a610153565b60405163ffffffff90911681526020015b60405180910390f35b3480156100a057600080fd5b5061005b6100af36600461037d565b610173565b3480156100c057600080fd5b506100c9610223565b6040516001600160a01b03909116815260200161008b565b3480156100ed57600080fd5b5061005b6100fc3660046103bd565b61023c565b34801561010d57600080fd5b506100c961029b565b60006101206102b7565b600101546001600160a01b031690503660008037600080366000845af43d6000803e80801561014e573d6000f35b3d6000fd5b600061015d6102b7565b60010154600160a01b900463ffffffff16919050565b61017b6102b7565b546001600160a01b031633146101cb5760405162461bcd60e51b815260206004820152601060248201526f11549497d5539055551213d49254d15160821b60448201526064015b60405180910390fd5b816101d46102b7565b60010180546001600160a01b0319166001600160a01b0392909216919091179055806101fe6102b7565b60010160146101000a81548163ffffffff021916908363ffffffff1602179055505050565b600061022d6102b7565b546001600160a01b0316919050565b6102446102b7565b546001600160a01b0316331461028f5760405162461bcd60e51b815260206004820152601060248201526f11549497d5539055551213d49254d15160821b60448201526064016101c2565b610298816102eb565b50565b60006102a56102b7565b600101546001600160a01b0316919050565b6000806102e560017f4c3ee7f6a2d8af71947ceff4838fdd00b02c41abff6d08e2cd4475e7186935a96103df565b92915050565b7f7e644d79422f17c01e4894b5f4f588d331ebfa28653d42ae832dc59e38c9798f6103146102b7565b54604080516001600160a01b03928316815291841660208301520160405180910390a1806103406102b7565b80546001600160a01b0319166001600160a01b039290921691909117905550565b80356001600160a01b038116811461037857600080fd5b919050565b6000806040838503121561039057600080fd5b61039983610361565b9150602083013563ffffffff811681146103b257600080fd5b809150509250929050565b6000602082840312156103cf57600080fd5b6103d882610361565b9392505050565b818103818111156102e557634e487b7160e01b600052601160045260246000fdfea264697066735822122038183417ff0d3055886cda1848a49e4ca2db7b8d563b14eca6d41fd919ae002764736f6c63430008110033",
    "linkReferences": {}
  },
  "methodIdentifiers": {
    "implementation()": "5c60da1b",
    "implementationVersion()": "06bfcec6",
    "proxyAdmin()": "3e47158c",
    "setProxyAdmin(address)": "47c02661",
    "upgrade(address,uint32)": "2baa9a7d"
  },
  "id": 0
}